{
  "contractName": "Admin",
  "abi": [
    {
      "inputs": [],
      "stateMutability": "nonpayable",
      "type": "constructor"
    },
    {
      "anonymous": false,
      "inputs": [
        {
          "indexed": true,
          "internalType": "address",
          "name": "admin",
          "type": "address"
        }
      ],
      "name": "AdminAdded",
      "type": "event"
    },
    {
      "anonymous": false,
      "inputs": [
        {
          "indexed": true,
          "internalType": "address",
          "name": "admin",
          "type": "address"
        }
      ],
      "name": "AdminRemoved",
      "type": "event"
    },
    {
      "anonymous": false,
      "inputs": [
        {
          "indexed": true,
          "internalType": "address",
          "name": "previousOwner",
          "type": "address"
        },
        {
          "indexed": true,
          "internalType": "address",
          "name": "newOwner",
          "type": "address"
        }
      ],
      "name": "OwnershipTransferred",
      "type": "event"
    },
    {
      "inputs": [
        {
          "internalType": "address",
          "name": "newOwner",
          "type": "address"
        }
      ],
      "name": "transferOwnership",
      "outputs": [],
      "stateMutability": "nonpayable",
      "type": "function"
    },
    {
      "inputs": [
        {
          "internalType": "address",
          "name": "_admin",
          "type": "address"
        }
      ],
      "name": "addAdmin",
      "outputs": [],
      "stateMutability": "nonpayable",
      "type": "function"
    },
    {
      "inputs": [
        {
          "internalType": "address",
          "name": "_admin",
          "type": "address"
        }
      ],
      "name": "removeAdmin",
      "outputs": [],
      "stateMutability": "nonpayable",
      "type": "function"
    },
    {
      "inputs": [
        {
          "internalType": "address",
          "name": "_admin",
          "type": "address"
        }
      ],
      "name": "checkAdmin",
      "outputs": [
        {
          "internalType": "string",
          "name": "",
          "type": "string"
        }
      ],
      "stateMutability": "view",
      "type": "function"
    }
  ],
  "bytecode": "0x608060405234801561001057600080fd5b5061001f61006360201b60201c565b6000806101000a81548173ffffffffffffffffffffffffffffffffffffffff021916908373ffffffffffffffffffffffffffffffffffffffff16021790555061006b565b600033905090565b61081d8061007a6000396000f3fe608060405234801561001057600080fd5b506004361061004c5760003560e01c80631785f53c14610051578063704802751461006d5780639026dee814610089578063f2fde38b146100b9575b600080fd5b61006b6004803603810190610066919061064e565b6100d5565b005b6100876004803603810190610082919061064e565b610208565b005b6100a3600480360381019061009e919061064e565b61033a565b6040516100b091906106d3565b60405180910390f35b6100d360048036038101906100ce919061064e565b6104a5565b005b60008054906101000a900473ffffffffffffffffffffffffffffffffffffffff1673ffffffffffffffffffffffffffffffffffffffff16610114610631565b73ffffffffffffffffffffffffffffffffffffffff161461016a576040517f08c379a0000000000000000000000000000000000000000000000000000000008152600401610161906106f5565b60405180910390fd5b6000600160008373ffffffffffffffffffffffffffffffffffffffff1673ffffffffffffffffffffffffffffffffffffffff16815260200190815260200160002060006101000a81548160ff0219169083151502179055508073ffffffffffffffffffffffffffffffffffffffff167fa3b62bc36326052d97ea62d63c3d60308ed4c3ea8ac079dd8499f1e9c4f80c0f60405160405180910390a250565b60008054906101000a900473ffffffffffffffffffffffffffffffffffffffff1673ffffffffffffffffffffffffffffffffffffffff16610247610631565b73ffffffffffffffffffffffffffffffffffffffff161461029d576040517f08c379a0000000000000000000000000000000000000000000000000000000008152600401610294906106f5565b60405180910390fd5b60018060008373ffffffffffffffffffffffffffffffffffffffff1673ffffffffffffffffffffffffffffffffffffffff16815260200190815260200160002060006101000a81548160ff0219169083151502179055508073ffffffffffffffffffffffffffffffffffffffff167f44d6d25963f097ad14f29f06854a01f575648a1ef82f30e562ccd3889717e33960405160405180910390a250565b606060008054906101000a900473ffffffffffffffffffffffffffffffffffffffff1673ffffffffffffffffffffffffffffffffffffffff1661037b610631565b73ffffffffffffffffffffffffffffffffffffffff16146103d1576040517f08c379a00000000000000000000000000000000000000000000000000000000081526004016103c8906106f5565b60405180910390fd5b60011515600160008473ffffffffffffffffffffffffffffffffffffffff1673ffffffffffffffffffffffffffffffffffffffff16815260200190815260200160002060009054906101000a900460ff1615151415610467576040518060400160405280600d81526020017f546869732069732061646d696e0000000000000000000000000000000000000081525090506104a0565b6040518060400160405280601181526020017f54686973206973206e6f742061646d696e00000000000000000000000000000081525090505b919050565b60008054906101000a900473ffffffffffffffffffffffffffffffffffffffff1673ffffffffffffffffffffffffffffffffffffffff166104e4610631565b73ffffffffffffffffffffffffffffffffffffffff161461053a576040517f08c379a0000000000000000000000000000000000000000000000000000000008152600401610531906106f5565b60405180910390fd5b600073ffffffffffffffffffffffffffffffffffffffff168173ffffffffffffffffffffffffffffffffffffffff16141561057457600080fd5b8073ffffffffffffffffffffffffffffffffffffffff1660008054906101000a900473ffffffffffffffffffffffffffffffffffffffff1673ffffffffffffffffffffffffffffffffffffffff167f8be0079c531659141344cd1fd0a4f28419497f9722a3daafe3b4186f6b6457e060405160405180910390a3806000806101000a81548173ffffffffffffffffffffffffffffffffffffffff021916908373ffffffffffffffffffffffffffffffffffffffff16021790555050565b600033905090565b600081359050610648816107d0565b92915050565b60006020828403121561066057600080fd5b600061066e84828501610639565b91505092915050565b600061068282610715565b61068c8185610720565b935061069c818560208601610763565b6106a581610796565b840191505092915050565b60006106bd601183610720565b91506106c8826107a7565b602082019050919050565b600060208201905081810360008301526106ed8184610677565b905092915050565b6000602082019050818103600083015261070e816106b0565b9050919050565b600081519050919050565b600082825260208201905092915050565b600061073c82610743565b9050919050565b600073ffffffffffffffffffffffffffffffffffffffff82169050919050565b60005b83811015610781578082015181840152602081019050610766565b83811115610790576000848401525b50505050565b6000601f19601f8301169050919050565b7f596f7520617265206e6f74206f776e6572000000000000000000000000000000600082015250565b6107d981610731565b81146107e457600080fd5b5056fea26469706673582212206b742ff4377fc3480bb886856ee9d9826cbc499d7498ae08e92b35b5ff5687c864736f6c63430008010033",
  "immutableReferences": {},
  "source": "// SPDX-License-Identifier: no-licence\r\n\r\npragma solidity ^0.8.1;\r\n\r\ncontract Admin {\r\n    \r\n    address owner;                      // address which sets admins\r\n    mapping(address => bool) isAdmin;\r\n    \r\n    event AdminAdded(address indexed admin);\r\n    event AdminRemoved(address indexed admin);\r\n    event OwnershipTransferred(address indexed previousOwner, address indexed newOwner);\r\n    \r\n    function _msgSender() internal view returns (address) {                 // address of msg.sender\r\n        return msg.sender;\r\n    }\r\n\r\n    function _msgValue() internal view returns (uint) {                     // amount of msg.value\r\n        return msg.value;\r\n    }\r\n\r\n    modifier onlyOwner() {\r\n        require(_msgSender() == owner, \"You are not owner\");\r\n        _;\r\n    }\r\n\r\n    modifier validAdmin() {\r\n        require(isAdmin[_msgSender()] == true || _msgSender() == owner, \"You are not authorized\");\r\n        _;\r\n    }\r\n\r\n    constructor() {\r\n        owner = _msgSender();\r\n    }\r\n    \r\n    //Allows the current owner to transfer control of the contract to a newOwner.\r\n    function transferOwnership(address newOwner) external onlyOwner {\r\n        require(newOwner != address(0));\r\n        emit OwnershipTransferred(owner, newOwner);\r\n        owner = newOwner;\r\n    }\r\n\r\n    function addAdmin(address _admin) external onlyOwner {\r\n        isAdmin[_admin] = true;\r\n        emit AdminAdded(_admin);\r\n    }\r\n\r\n    function removeAdmin(address _admin) external onlyOwner {\r\n        isAdmin[_admin] = false;\r\n        emit AdminRemoved(_admin);\r\n    }\r\n    \r\n    function checkAdmin(address _admin) external view onlyOwner returns(string memory) {\r\n        \r\n        if ( isAdmin[_admin] == true){\r\n            return \"This is admin\";\r\n        } \r\n        else return \"This is not admin\";\r\n    }\r\n\r\n}",
  "sourcePath": "E:\\Ethereum projects\\Freelancer\\src\\contracts\\ownership\\Admin.sol",
  "compiler": {
    "name": "solc",
    "version": "0.8.1+commit.df193b15.Emscripten.clang"
  },
  "schemaVersion": "3.3.3",
  "updatedAt": "2021-02-02T10:25:01.260Z",
  "devdoc": {
    "kind": "dev",
    "methods": {},
    "version": 1
  },
  "userdoc": {
    "kind": "user",
    "methods": {},
    "version": 1
  }
}