{
  "contractName": "Freelancer",
  "abi": [
    {
      "inputs": [
        {
          "internalType": "address",
          "name": "_reputation",
          "type": "address"
        },
        {
          "internalType": "address",
          "name": "_wallet",
          "type": "address"
        }
      ],
      "stateMutability": "nonpayable",
      "type": "constructor"
    },
    {
      "anonymous": false,
      "inputs": [
        {
          "indexed": true,
          "internalType": "address",
          "name": "admin",
          "type": "address"
        }
      ],
      "name": "AdminAdded",
      "type": "event"
    },
    {
      "anonymous": false,
      "inputs": [
        {
          "indexed": true,
          "internalType": "address",
          "name": "admin",
          "type": "address"
        }
      ],
      "name": "AdminRemoved",
      "type": "event"
    },
    {
      "anonymous": false,
      "inputs": [
        {
          "indexed": true,
          "internalType": "address",
          "name": "previousOwner",
          "type": "address"
        },
        {
          "indexed": true,
          "internalType": "address",
          "name": "newOwner",
          "type": "address"
        }
      ],
      "name": "OwnershipTransferred",
      "type": "event"
    },
    {
      "anonymous": false,
      "inputs": [
        {
          "indexed": true,
          "internalType": "uint256",
          "name": "projectId",
          "type": "uint256"
        },
        {
          "indexed": true,
          "internalType": "uint256",
          "name": "proposalId",
          "type": "uint256"
        },
        {
          "indexed": false,
          "internalType": "uint256",
          "name": "vote",
          "type": "uint256"
        },
        {
          "indexed": false,
          "internalType": "uint256",
          "name": "arbitrationDate",
          "type": "uint256"
        }
      ],
      "name": "ProjectArbitrated",
      "type": "event"
    },
    {
      "anonymous": false,
      "inputs": [
        {
          "indexed": true,
          "internalType": "uint256",
          "name": "projectId",
          "type": "uint256"
        },
        {
          "indexed": true,
          "internalType": "address",
          "name": "employee",
          "type": "address"
        },
        {
          "indexed": false,
          "internalType": "uint256",
          "name": "projectCancelDate",
          "type": "uint256"
        }
      ],
      "name": "ProjectCanceled",
      "type": "event"
    },
    {
      "anonymous": false,
      "inputs": [
        {
          "indexed": true,
          "internalType": "uint256",
          "name": "projectId",
          "type": "uint256"
        },
        {
          "indexed": true,
          "internalType": "address",
          "name": "employee",
          "type": "address"
        },
        {
          "indexed": false,
          "internalType": "uint256",
          "name": "budget",
          "type": "uint256"
        },
        {
          "indexed": false,
          "internalType": "enum Freelancer.ProjectType",
          "name": "projectType",
          "type": "uint8"
        },
        {
          "indexed": false,
          "internalType": "contract IERC20",
          "name": "currency",
          "type": "address"
        },
        {
          "indexed": false,
          "internalType": "uint256",
          "name": "projectCreationDate",
          "type": "uint256"
        }
      ],
      "name": "ProjectCreated",
      "type": "event"
    },
    {
      "anonymous": false,
      "inputs": [
        {
          "indexed": true,
          "internalType": "uint256",
          "name": "projectId",
          "type": "uint256"
        },
        {
          "indexed": true,
          "internalType": "uint256",
          "name": "proposalId",
          "type": "uint256"
        },
        {
          "indexed": false,
          "internalType": "uint256",
          "name": "deliveredDate",
          "type": "uint256"
        }
      ],
      "name": "ProjectDelivered",
      "type": "event"
    },
    {
      "anonymous": false,
      "inputs": [
        {
          "indexed": true,
          "internalType": "uint256",
          "name": "projectId",
          "type": "uint256"
        },
        {
          "indexed": false,
          "internalType": "uint256",
          "name": "disableDate",
          "type": "uint256"
        }
      ],
      "name": "ProjectDisabled",
      "type": "event"
    },
    {
      "anonymous": false,
      "inputs": [
        {
          "indexed": true,
          "internalType": "uint256",
          "name": "projectId",
          "type": "uint256"
        },
        {
          "indexed": true,
          "internalType": "uint256",
          "name": "proposalId",
          "type": "uint256"
        },
        {
          "indexed": false,
          "internalType": "uint256",
          "name": "finalizedDate",
          "type": "uint256"
        }
      ],
      "name": "ProjectFinalized",
      "type": "event"
    },
    {
      "anonymous": false,
      "inputs": [
        {
          "indexed": true,
          "internalType": "uint256",
          "name": "projectId",
          "type": "uint256"
        },
        {
          "indexed": true,
          "internalType": "uint256",
          "name": "proposalId",
          "type": "uint256"
        },
        {
          "indexed": false,
          "internalType": "uint256",
          "name": "acceptDate",
          "type": "uint256"
        }
      ],
      "name": "ProposalAccepted",
      "type": "event"
    },
    {
      "anonymous": false,
      "inputs": [
        {
          "indexed": true,
          "internalType": "uint256",
          "name": "projectId",
          "type": "uint256"
        },
        {
          "indexed": true,
          "internalType": "address",
          "name": "freeLancer",
          "type": "address"
        },
        {
          "indexed": false,
          "internalType": "uint256",
          "name": "proposedAmount",
          "type": "uint256"
        },
        {
          "indexed": false,
          "internalType": "uint256",
          "name": "proposedTime",
          "type": "uint256"
        },
        {
          "indexed": false,
          "internalType": "uint256",
          "name": "proposalCreationDate",
          "type": "uint256"
        }
      ],
      "name": "ProposalCreated",
      "type": "event"
    },
    {
      "anonymous": false,
      "inputs": [
        {
          "indexed": true,
          "internalType": "address",
          "name": "oldWallet",
          "type": "address"
        },
        {
          "indexed": true,
          "internalType": "address",
          "name": "newWallet",
          "type": "address"
        },
        {
          "indexed": false,
          "internalType": "uint256",
          "name": "walletChangeDate",
          "type": "uint256"
        }
      ],
      "name": "WalletChanged",
      "type": "event"
    },
    {
      "inputs": [
        {
          "internalType": "address",
          "name": "_admin",
          "type": "address"
        }
      ],
      "name": "addAdmin",
      "outputs": [],
      "stateMutability": "nonpayable",
      "type": "function"
    },
    {
      "inputs": [
        {
          "internalType": "address",
          "name": "_admin",
          "type": "address"
        }
      ],
      "name": "checkAdmin",
      "outputs": [
        {
          "internalType": "string",
          "name": "",
          "type": "string"
        }
      ],
      "stateMutability": "view",
      "type": "function",
      "constant": true
    },
    {
      "inputs": [],
      "name": "projectCounter",
      "outputs": [
        {
          "internalType": "uint256",
          "name": "",
          "type": "uint256"
        }
      ],
      "stateMutability": "view",
      "type": "function",
      "constant": true
    },
    {
      "inputs": [
        {
          "internalType": "address",
          "name": "_admin",
          "type": "address"
        }
      ],
      "name": "removeAdmin",
      "outputs": [],
      "stateMutability": "nonpayable",
      "type": "function"
    },
    {
      "inputs": [
        {
          "internalType": "address",
          "name": "newOwner",
          "type": "address"
        }
      ],
      "name": "transferOwnership",
      "outputs": [],
      "stateMutability": "nonpayable",
      "type": "function"
    },
    {
      "inputs": [],
      "name": "getOwner",
      "outputs": [
        {
          "internalType": "address",
          "name": "",
          "type": "address"
        }
      ],
      "stateMutability": "view",
      "type": "function",
      "constant": true
    },
    {
      "inputs": [],
      "name": "showWallet",
      "outputs": [
        {
          "internalType": "address",
          "name": "",
          "type": "address"
        }
      ],
      "stateMutability": "view",
      "type": "function",
      "constant": true
    },
    {
      "inputs": [
        {
          "internalType": "address",
          "name": "_freeLancer",
          "type": "address"
        }
      ],
      "name": "getWithoutDispute",
      "outputs": [
        {
          "internalType": "uint256",
          "name": "",
          "type": "uint256"
        }
      ],
      "stateMutability": "view",
      "type": "function",
      "constant": true
    },
    {
      "inputs": [
        {
          "internalType": "address",
          "name": "_freeLancer",
          "type": "address"
        }
      ],
      "name": "getLancerWonDispute",
      "outputs": [
        {
          "internalType": "uint256",
          "name": "",
          "type": "uint256"
        }
      ],
      "stateMutability": "view",
      "type": "function",
      "constant": true
    },
    {
      "inputs": [
        {
          "internalType": "address",
          "name": "_freeLancer",
          "type": "address"
        }
      ],
      "name": "getLancerLostDispute",
      "outputs": [
        {
          "internalType": "uint256",
          "name": "",
          "type": "uint256"
        }
      ],
      "stateMutability": "view",
      "type": "function",
      "constant": true
    },
    {
      "inputs": [
        {
          "internalType": "address",
          "name": "_newWallet",
          "type": "address"
        }
      ],
      "name": "changeWallet",
      "outputs": [],
      "stateMutability": "nonpayable",
      "type": "function"
    },
    {
      "inputs": [
        {
          "internalType": "uint256",
          "name": "_budget",
          "type": "uint256"
        },
        {
          "internalType": "enum Freelancer.ProjectType",
          "name": "_projectType",
          "type": "uint8"
        },
        {
          "internalType": "contract IERC20",
          "name": "_currency",
          "type": "address"
        }
      ],
      "name": "createProject",
      "outputs": [],
      "stateMutability": "payable",
      "type": "function",
      "payable": true
    },
    {
      "inputs": [
        {
          "internalType": "uint256",
          "name": "_projectId",
          "type": "uint256"
        }
      ],
      "name": "cancelProject",
      "outputs": [],
      "stateMutability": "nonpayable",
      "type": "function"
    },
    {
      "inputs": [
        {
          "internalType": "uint256",
          "name": "_projectId",
          "type": "uint256"
        },
        {
          "internalType": "uint256",
          "name": "_proposedAmount",
          "type": "uint256"
        },
        {
          "internalType": "uint256",
          "name": "_proposedTime",
          "type": "uint256"
        }
      ],
      "name": "createProposal",
      "outputs": [],
      "stateMutability": "nonpayable",
      "type": "function"
    },
    {
      "inputs": [
        {
          "internalType": "uint256",
          "name": "_projectId",
          "type": "uint256"
        },
        {
          "internalType": "uint256",
          "name": "_proposalId",
          "type": "uint256"
        }
      ],
      "name": "acceptProposal",
      "outputs": [],
      "stateMutability": "nonpayable",
      "type": "function"
    },
    {
      "inputs": [
        {
          "internalType": "uint256",
          "name": "_projectId",
          "type": "uint256"
        },
        {
          "internalType": "uint256",
          "name": "_proposalId",
          "type": "uint256"
        }
      ],
      "name": "deliverProject",
      "outputs": [],
      "stateMutability": "nonpayable",
      "type": "function"
    },
    {
      "inputs": [
        {
          "internalType": "uint256",
          "name": "_projectId",
          "type": "uint256"
        },
        {
          "internalType": "uint256",
          "name": "_proposalId",
          "type": "uint256"
        }
      ],
      "name": "finalizeProject",
      "outputs": [],
      "stateMutability": "nonpayable",
      "type": "function"
    },
    {
      "inputs": [
        {
          "internalType": "uint256",
          "name": "_projectId",
          "type": "uint256"
        },
        {
          "internalType": "uint256",
          "name": "_proposalId",
          "type": "uint256"
        },
        {
          "internalType": "uint256",
          "name": "_vote",
          "type": "uint256"
        }
      ],
      "name": "arbitration",
      "outputs": [],
      "stateMutability": "nonpayable",
      "type": "function"
    },
    {
      "inputs": [
        {
          "internalType": "uint256",
          "name": "_projectId",
          "type": "uint256"
        }
      ],
      "name": "disableProject",
      "outputs": [],
      "stateMutability": "nonpayable",
      "type": "function"
    }
  ],
  "bytecode": "0x608060405260006002553480156200001657600080fd5b5060405162005e7538038062005e7583398181016040528101906200003c919062000183565b6200004c6200016460201b60201c565b6000806101000a81548173ffffffffffffffffffffffffffffffffffffffff021916908373ffffffffffffffffffffffffffffffffffffffff1602179055506200009b6200016460201b60201c565b6000806101000a81548173ffffffffffffffffffffffffffffffffffffffff021916908373ffffffffffffffffffffffffffffffffffffffff16021790555081600460006101000a81548173ffffffffffffffffffffffffffffffffffffffff021916908373ffffffffffffffffffffffffffffffffffffffff16021790555080600360006101000a81548173ffffffffffffffffffffffffffffffffffffffff021916908373ffffffffffffffffffffffffffffffffffffffff160217905550505062000212565b600033905090565b6000815190506200017d81620001f8565b92915050565b600080604083850312156200019757600080fd5b6000620001a7858286016200016c565b9250506020620001ba858286016200016c565b9150509250929050565b6000620001d182620001d8565b9050919050565b600073ffffffffffffffffffffffffffffffffffffffff82169050919050565b6200020381620001c4565b81146200020f57600080fd5b50565b615c5380620002226000396000f3fe6080604052600436106101145760003560e01c8063893d20e8116100a0578063e1e1d5ca11610064578063e1e1d5ca1461039e578063f1ac7ffc146103c7578063f2fde38b146103f0578063f8a518ed14610419578063fdd3df861461044457610114565b8063893d20e8146102b457806389bf5a07146102df5780639026dee8146102fb57806398b9a2dc14610338578063d89f21981461036157610114565b80634cebeacc116100e75780634cebeacc146101bd5780635c7bd757146101fa5780637048027514610237578063722c517614610260578063776e0fdd1461028957610114565b80631785f53c1461011957806324941147146101425780633704092d1461016b57806343b2260a14610194575b600080fd5b34801561012557600080fd5b50610140600480360381019061013b91906146f2565b61046d565b005b34801561014e57600080fd5b5061016960048036038101906101649190614744565b6105a0565b005b34801561017757600080fd5b50610192600480360381019061018d9190614821565b610963565b005b3480156101a057600080fd5b506101bb60048036038101906101b691906147e5565b6115a5565b005b3480156101c957600080fd5b506101e460048036038101906101df91906146f2565b611897565b6040516101f1919061519f565b60405180910390f35b34801561020657600080fd5b50610221600480360381019061021c91906146f2565b61194b565b60405161022e919061519f565b60405180910390f35b34801561024357600080fd5b5061025e600480360381019061025991906146f2565b6119ff565b005b34801561026c57600080fd5b5061028760048036038101906102829190614821565b611b31565b005b34801561029557600080fd5b5061029e61206c565b6040516102ab9190614d22565b60405180910390f35b3480156102c057600080fd5b506102c961218d565b6040516102d69190614d22565b60405180910390f35b6102f960048036038101906102f49190614796565b6122ac565b005b34801561030757600080fd5b50610322600480360381019061031d91906146f2565b612b6c565b60405161032f9190614d9d565b60405180910390f35b34801561034457600080fd5b5061035f600480360381019061035a91906146f2565b612cd7565b005b34801561036d57600080fd5b50610388600480360381019061038391906146f2565b612e37565b604051610395919061519f565b60405180910390f35b3480156103aa57600080fd5b506103c560048036038101906103c091906147e5565b612eeb565b005b3480156103d357600080fd5b506103ee60048036038101906103e99190614744565b6131e0565b005b3480156103fc57600080fd5b50610417600480360381019061041291906146f2565b613803565b005b34801561042557600080fd5b5061042e61398f565b60405161043b919061519f565b60405180910390f35b34801561045057600080fd5b5061046b600480360381019061046691906147e5565b613995565b005b60008054906101000a900473ffffffffffffffffffffffffffffffffffffffff1673ffffffffffffffffffffffffffffffffffffffff166104ac6144ce565b73ffffffffffffffffffffffffffffffffffffffff1614610502576040517f08c379a00000000000000000000000000000000000000000000000000000000081526004016104f99061517f565b60405180910390fd5b6000600160008373ffffffffffffffffffffffffffffffffffffffff1673ffffffffffffffffffffffffffffffffffffffff16815260200190815260200160002060006101000a81548160ff0219169083151502179055508073ffffffffffffffffffffffffffffffffffffffff167fa3b62bc36326052d97ea62d63c3d60308ed4c3ea8ac079dd8499f1e9c4f80c0f60405160405180910390a250565b600060116000838152602001908152602001600020905060008160060160159054906101000a900460ff1660ff161461060e576040517f08c379a000000000000000000000000000000000000000000000000000000000815260040161060590614e9f565b60405180910390fd5b8060030160009054906101000a900473ffffffffffffffffffffffffffffffffffffffff1673ffffffffffffffffffffffffffffffffffffffff166106516144ce565b73ffffffffffffffffffffffffffffffffffffffff16146106a7576040517f08c379a000000000000000000000000000000000000000000000000000000000815260040161069e90614f1f565b60405180910390fd5b60006106bb826001015483600201546144d6565b905060008260010181905550600081141561070b576040517f08c379a000000000000000000000000000000000000000000000000000000000815260040161070290614e3f565b60405180910390fd5b600115158260060160169054906101000a900460ff1615151415610799578160030160009054906101000a900473ffffffffffffffffffffffffffffffffffffffff1673ffffffffffffffffffffffffffffffffffffffff166108fc829081150290604051600060405180830381858888f19350505050158015610793573d6000803e3d6000fd5b506108cd565b600015158260060160169054906101000a900460ff16151514156108cc578160060160019054906101000a900473ffffffffffffffffffffffffffffffffffffffff1673ffffffffffffffffffffffffffffffffffffffff1663a9059cbb8360030160009054906101000a900473ffffffffffffffffffffffffffffffffffffffff16836040518363ffffffff1660e01b815260040161083a929190614d74565b602060405180830381600087803b15801561085457600080fd5b505af1158015610868573d6000803e3d6000fd5b505050506040513d601f19601f8201168201806040525081019061088c919061471b565b6108cb576040517f08c379a00000000000000000000000000000000000000000000000000000000081526004016108c290614ddf565b60405180910390fd5b5b5b60048260060160156101000a81548160ff021916908360ff1602179055508160030160009054906101000a900473ffffffffffffffffffffffffffffffffffffffff1673ffffffffffffffffffffffffffffffffffffffff16837f902990c7171650ffdc790105e07277f716ee5006221a87550e153415c2a8ce3b42604051610956919061519f565b60405180910390a3505050565b60011515600160006109736144ce565b73ffffffffffffffffffffffffffffffffffffffff1673ffffffffffffffffffffffffffffffffffffffff16815260200190815260200160002060009054906101000a900460ff1615151480610a1b575060008054906101000a900473ffffffffffffffffffffffffffffffffffffffff1673ffffffffffffffffffffffffffffffffffffffff16610a036144ce565b73ffffffffffffffffffffffffffffffffffffffff16145b610a5a576040517f08c379a0000000000000000000000000000000000000000000000000000000008152600401610a519061503f565b60405180910390fd5b60006011600085815260200190815260200160002090506000601260008681526020019081526020016000208481548110610abe577f4e487b7100000000000000000000000000000000000000000000000000000000600052603260045260246000fd5b90600052602060002090600502016040518060a00160405290816000820160009054906101000a900473ffffffffffffffffffffffffffffffffffffffff1673ffffffffffffffffffffffffffffffffffffffff1673ffffffffffffffffffffffffffffffffffffffff1681526020016001820154815260200160028201548152602001600382015481526020016004820160009054906101000a900460ff1660ff1660ff1681525050905060028260060160159054906101000a900460ff1660ff161415610bc2576040517f08c379a0000000000000000000000000000000000000000000000000000000008152600401610bb99061505f565b60405180910390fd5b6001816080015160ff1614610c0c576040517f08c379a0000000000000000000000000000000000000000000000000000000008152600401610c0390614f5f565b60405180910390fd5b60018260060160159054906101000a900460ff1660ff161480610c43575060058260060160159054906101000a900460ff1660ff16145b610c82576040517f08c379a0000000000000000000000000000000000000000000000000000000008152600401610c7990614edf565b60405180910390fd5b6000610c9683600101548360400151614534565b90506000826040015190506000846001018190555060008360400181815250506000811415610cfa576040517f08c379a0000000000000000000000000000000000000000000000000000000008152600401610cf190614f9f565b60405180910390fd5b600084600201549050600085600201819055506000811415610d51576040517f08c379a0000000000000000000000000000000000000000000000000000000008152600401610d4890614f9f565b60405180910390fd5b600186141561117a576000610d6683856144d6565b9050600115158660060160169054906101000a900460ff1615151415610e5f578560030160009054906101000a900473ffffffffffffffffffffffffffffffffffffffff1673ffffffffffffffffffffffffffffffffffffffff166108fc829081150290604051600060405180830381858888f19350505050158015610df0573d6000803e3d6000fd5b50600360009054906101000a900473ffffffffffffffffffffffffffffffffffffffff1673ffffffffffffffffffffffffffffffffffffffff166108fc839081150290604051600060405180830381858888f19350505050158015610e59573d6000803e3d6000fd5b506110a5565b600015158660060160169054906101000a900460ff16151514156110a4578560060160019054906101000a900473ffffffffffffffffffffffffffffffffffffffff1673ffffffffffffffffffffffffffffffffffffffff1663a9059cbb8760030160009054906101000a900473ffffffffffffffffffffffffffffffffffffffff16836040518363ffffffff1660e01b8152600401610f00929190614d74565b602060405180830381600087803b158015610f1a57600080fd5b505af1158015610f2e573d6000803e3d6000fd5b505050506040513d601f19601f82011682018060405250810190610f52919061471b565b610f91576040517f08c379a0000000000000000000000000000000000000000000000000000000008152600401610f8890614ddf565b60405180910390fd5b8560060160019054906101000a900473ffffffffffffffffffffffffffffffffffffffff1673ffffffffffffffffffffffffffffffffffffffff1663a9059cbb600360009054906101000a900473ffffffffffffffffffffffffffffffffffffffff16846040518363ffffffff1660e01b8152600401611012929190614d74565b602060405180830381600087803b15801561102c57600080fd5b505af1158015611040573d6000803e3d6000fd5b505050506040513d601f19601f82011682018060405250810190611064919061471b565b6110a3576040517f08c379a000000000000000000000000000000000000000000000000000000000815260040161109a90614ddf565b60405180910390fd5b5b5b60028660060160156101000a81548160ff021916908360ff160217905550600460009054906101000a900473ffffffffffffffffffffffffffffffffffffffff1673ffffffffffffffffffffffffffffffffffffffff16634d2c7aeb8760040160009054906101000a900473ffffffffffffffffffffffffffffffffffffffff166040518263ffffffff1660e01b81526004016111429190614d22565b600060405180830381600087803b15801561115c57600080fd5b505af1158015611170573d6000803e3d6000fd5b5050505050611560565b600286141561155f57600061118f83856144d6565b9050600115158660060160169054906101000a900460ff161515141561126857846000015173ffffffffffffffffffffffffffffffffffffffff166108fc829081150290604051600060405180830381858888f193505050501580156111f9573d6000803e3d6000fd5b50600360009054906101000a900473ffffffffffffffffffffffffffffffffffffffff1673ffffffffffffffffffffffffffffffffffffffff166108fc839081150290604051600060405180830381858888f19350505050158015611262573d6000803e3d6000fd5b5061148e565b600015158660060160169054906101000a900460ff161515141561148d578560060160019054906101000a900473ffffffffffffffffffffffffffffffffffffffff1673ffffffffffffffffffffffffffffffffffffffff1663a9059cbb8660000151836040518363ffffffff1660e01b81526004016112e9929190614d74565b602060405180830381600087803b15801561130357600080fd5b505af1158015611317573d6000803e3d6000fd5b505050506040513d601f19601f8201168201806040525081019061133b919061471b565b61137a576040517f08c379a000000000000000000000000000000000000000000000000000000000815260040161137190614ddf565b60405180910390fd5b8560060160019054906101000a900473ffffffffffffffffffffffffffffffffffffffff1673ffffffffffffffffffffffffffffffffffffffff1663a9059cbb600360009054906101000a900473ffffffffffffffffffffffffffffffffffffffff16846040518363ffffffff1660e01b81526004016113fb929190614d74565b602060405180830381600087803b15801561141557600080fd5b505af1158015611429573d6000803e3d6000fd5b505050506040513d601f19601f8201168201806040525081019061144d919061471b565b61148c576040517f08c379a000000000000000000000000000000000000000000000000000000000815260040161148390614ddf565b60405180910390fd5b5b5b60028660060160156101000a81548160ff021916908360ff160217905550600460009054906101000a900473ffffffffffffffffffffffffffffffffffffffff1673ffffffffffffffffffffffffffffffffffffffff16638c6c757d8760040160009054906101000a900473ffffffffffffffffffffffffffffffffffffffff166040518263ffffffff1660e01b815260040161152b9190614d22565b600060405180830381600087803b15801561154557600080fd5b505af1158015611559573d6000803e3d6000fd5b50505050505b5b86887f186dfeccf13ade2c6de67829fb6c90431dc857b4c608a07ea8aff346e641ff0188426040516115939291906151ff565b60405180910390a35050505050505050565b60006012600084815260200190815260200160002082815481106115f2577f4e487b7100000000000000000000000000000000000000000000000000000000600052603260045260246000fd5b90600052602060002090600502016040518060a00160405290816000820160009054906101000a900473ffffffffffffffffffffffffffffffffffffffff1673ffffffffffffffffffffffffffffffffffffffff1673ffffffffffffffffffffffffffffffffffffffff1681526020016001820154815260200160028201548152602001600382015481526020016004820160009054906101000a900460ff1660ff1660ff1681525050905060006011600085815260200190815260200160002090508060040160009054906101000a900473ffffffffffffffffffffffffffffffffffffffff1673ffffffffffffffffffffffffffffffffffffffff166116f86144ce565b73ffffffffffffffffffffffffffffffffffffffff161480156117515750816000015173ffffffffffffffffffffffffffffffffffffffff166117396144ce565b73ffffffffffffffffffffffffffffffffffffffff16145b611790576040517f08c379a0000000000000000000000000000000000000000000000000000000008152600401611787906150ff565b60405180910390fd5b6001826080015160ff16146117da576040517f08c379a00000000000000000000000000000000000000000000000000000000081526004016117d19061509f565b60405180910390fd5b60018160060160159054906101000a900460ff1660ff1614611831576040517f08c379a00000000000000000000000000000000000000000000000000000000081526004016118289061511f565b60405180910390fd5b42816005018190555060058160060160156101000a81548160ff021916908360ff16021790555082847f77a737bd08122520dae211f4c5bfc34b04722bb5d59c7ffb62941052d0c92bbe42604051611889919061519f565b60405180910390a350505050565b6000600460009054906101000a900473ffffffffffffffffffffffffffffffffffffffff1673ffffffffffffffffffffffffffffffffffffffff16634cebeacc836040518263ffffffff1660e01b81526004016118f49190614d22565b60206040518083038186803b15801561190c57600080fd5b505afa158015611920573d6000803e3d6000fd5b505050506040513d601f19601f82011682018060405250810190611944919061476d565b9050919050565b6000600460009054906101000a900473ffffffffffffffffffffffffffffffffffffffff1673ffffffffffffffffffffffffffffffffffffffff16635c7bd757836040518263ffffffff1660e01b81526004016119a89190614d22565b60206040518083038186803b1580156119c057600080fd5b505afa1580156119d4573d6000803e3d6000fd5b505050506040513d601f19601f820116820180604052508101906119f8919061476d565b9050919050565b60008054906101000a900473ffffffffffffffffffffffffffffffffffffffff1673ffffffffffffffffffffffffffffffffffffffff16611a3e6144ce565b73ffffffffffffffffffffffffffffffffffffffff1614611a94576040517f08c379a0000000000000000000000000000000000000000000000000000000008152600401611a8b9061517f565b60405180910390fd5b60018060008373ffffffffffffffffffffffffffffffffffffffff1673ffffffffffffffffffffffffffffffffffffffff16815260200190815260200160002060006101000a81548160ff0219169083151502179055508073ffffffffffffffffffffffffffffffffffffffff167f44d6d25963f097ad14f29f06854a01f575648a1ef82f30e562ccd3889717e33960405160405180910390a250565b600060116000858152602001908152602001600020604051806101400160405290816000820154815260200160018201548152602001600282015481526020016003820160009054906101000a900473ffffffffffffffffffffffffffffffffffffffff1673ffffffffffffffffffffffffffffffffffffffff1673ffffffffffffffffffffffffffffffffffffffff1681526020016004820160009054906101000a900473ffffffffffffffffffffffffffffffffffffffff1673ffffffffffffffffffffffffffffffffffffffff1673ffffffffffffffffffffffffffffffffffffffff168152602001600582015481526020016006820160009054906101000a900460ff166005811115611c71577f4e487b7100000000000000000000000000000000000000000000000000000000600052602160045260246000fd5b6005811115611ca9577f4e487b7100000000000000000000000000000000000000000000000000000000600052602160045260246000fd5b81526020016006820160019054906101000a900473ffffffffffffffffffffffffffffffffffffffff1673ffffffffffffffffffffffffffffffffffffffff1673ffffffffffffffffffffffffffffffffffffffff1681526020016006820160159054906101000a900460ff1660ff1660ff1681526020016006820160169054906101000a900460ff1615151515815250509050806060015173ffffffffffffffffffffffffffffffffffffffff16611d606144ce565b73ffffffffffffffffffffffffffffffffffffffff161415611db7576040517f08c379a0000000000000000000000000000000000000000000000000000000008152600401611dae9061501f565b60405180910390fd5b600081610100015160ff1614611e02576040517f08c379a0000000000000000000000000000000000000000000000000000000008152600401611df990614eff565b60405180910390fd5b8060200151831115611e49576040517f08c379a0000000000000000000000000000000000000000000000000000000008152600401611e409061507f565b60405180910390fd5b60008211611e8c576040517f08c379a0000000000000000000000000000000000000000000000000000000008152600401611e8390614dbf565b60405180910390fd5b611e946144ce565b600c60000160006101000a81548173ffffffffffffffffffffffffffffffffffffffff021916908373ffffffffffffffffffffffffffffffffffffffff16021790555081600c6001018190555082600c600201819055506000600c600301819055506000600c60040160006101000a81548160ff021916908360ff1602179055506012600082600001518152602001908152602001600020600c90806001815401808255809150506001900390600052602060002090600502016000909190919091506000820160009054906101000a900473ffffffffffffffffffffffffffffffffffffffff168160000160006101000a81548173ffffffffffffffffffffffffffffffffffffffff021916908373ffffffffffffffffffffffffffffffffffffffff1602179055506001820154816001015560028201548160020155600382015481600301556004820160009054906101000a900460ff168160040160006101000a81548160ff021916908360ff16021790555050506120146144ce565b73ffffffffffffffffffffffffffffffffffffffff16847f66e5b37817dfa9935ab8e631ce7774a2e773d56cc8ea6815ac65f1fbac64208485854260405161205e93929190615228565b60405180910390a350505050565b6000600115156001600061207e6144ce565b73ffffffffffffffffffffffffffffffffffffffff1673ffffffffffffffffffffffffffffffffffffffff16815260200190815260200160002060009054906101000a900460ff1615151480612126575060008054906101000a900473ffffffffffffffffffffffffffffffffffffffff1673ffffffffffffffffffffffffffffffffffffffff1661210e6144ce565b73ffffffffffffffffffffffffffffffffffffffff16145b612165576040517f08c379a000000000000000000000000000000000000000000000000000000000815260040161215c9061503f565b60405180910390fd5b600360009054906101000a900473ffffffffffffffffffffffffffffffffffffffff16905090565b6000600115156001600061219f6144ce565b73ffffffffffffffffffffffffffffffffffffffff1673ffffffffffffffffffffffffffffffffffffffff16815260200190815260200160002060009054906101000a900460ff1615151480612247575060008054906101000a900473ffffffffffffffffffffffffffffffffffffffff1673ffffffffffffffffffffffffffffffffffffffff1661222f6144ce565b73ffffffffffffffffffffffffffffffffffffffff16145b612286576040517f08c379a000000000000000000000000000000000000000000000000000000000815260040161227d9061503f565b60405180910390fd5b60008054906101000a900473ffffffffffffffffffffffffffffffffffffffff16905090565b60648310156122f0576040517f08c379a00000000000000000000000000000000000000000000000000000000081526004016122e790614e7f565b60405180910390fd5b60006122fd846064614593565b9050600061230c82600a6145f1565b9050600061231a86836144d6565b905061232960025460016144d6565b600560000181905550856005600101819055508160056002018190555061234e6144ce565b600560030160006101000a81548173ffffffffffffffffffffffffffffffffffffffff021916908373ffffffffffffffffffffffffffffffffffffffff1602179055506000600560040160006101000a81548173ffffffffffffffffffffffffffffffffffffffff021916908373ffffffffffffffffffffffffffffffffffffffff1602179055506000600580018190555084600560060160006101000a81548160ff0219169083600581111561242e577f4e487b7100000000000000000000000000000000000000000000000000000000600052602160045260246000fd5b021790555083600560060160016101000a81548173ffffffffffffffffffffffffffffffffffffffff021916908373ffffffffffffffffffffffffffffffffffffffff1602179055506000600560060160156101000a81548160ff021916908360ff1602179055506001600560060160166101000a81548160ff021916908315150217905550600073ffffffffffffffffffffffffffffffffffffffff168473ffffffffffffffffffffffffffffffffffffffff16141561277657806124f261466c565b14612532576040517f08c379a00000000000000000000000000000000000000000000000000000000081526004016125299061513f565b60405180910390fd5b60056011600061254560025460016144d6565b81526020019081526020016000206000820154816000015560018201548160010155600282015481600201556003820160009054906101000a900473ffffffffffffffffffffffffffffffffffffffff168160030160006101000a81548173ffffffffffffffffffffffffffffffffffffffff021916908373ffffffffffffffffffffffffffffffffffffffff1602179055506004820160009054906101000a900473ffffffffffffffffffffffffffffffffffffffff168160040160006101000a81548173ffffffffffffffffffffffffffffffffffffffff021916908373ffffffffffffffffffffffffffffffffffffffff160217905550600582015481600501556006820160009054906101000a900460ff168160060160006101000a81548160ff021916908360058111156126a7577f4e487b7100000000000000000000000000000000000000000000000000000000600052602160045260246000fd5b02179055506006820160019054906101000a900473ffffffffffffffffffffffffffffffffffffffff168160060160016101000a81548173ffffffffffffffffffffffffffffffffffffffff021916908373ffffffffffffffffffffffffffffffffffffffff1602179055506006820160159054906101000a900460ff168160060160156101000a81548160ff021916908360ff1602179055506006820160169054906101000a900460ff168160060160166101000a81548160ff021916908315150217905550905050612af3565b600061278061466c565b146127c0576040517f08c379a00000000000000000000000000000000000000000000000000000000081526004016127b790614dff565b60405180910390fd5b6000600560060160166101000a81548160ff0219169083151502179055506005601160006127f160025460016144d6565b81526020019081526020016000206000820154816000015560018201548160010155600282015481600201556003820160009054906101000a900473ffffffffffffffffffffffffffffffffffffffff168160030160006101000a81548173ffffffffffffffffffffffffffffffffffffffff021916908373ffffffffffffffffffffffffffffffffffffffff1602179055506004820160009054906101000a900473ffffffffffffffffffffffffffffffffffffffff168160040160006101000a81548173ffffffffffffffffffffffffffffffffffffffff021916908373ffffffffffffffffffffffffffffffffffffffff160217905550600582015481600501556006820160009054906101000a900460ff168160060160006101000a81548160ff02191690836005811115612953577f4e487b7100000000000000000000000000000000000000000000000000000000600052602160045260246000fd5b02179055506006820160019054906101000a900473ffffffffffffffffffffffffffffffffffffffff168160060160016101000a81548173ffffffffffffffffffffffffffffffffffffffff021916908373ffffffffffffffffffffffffffffffffffffffff1602179055506006820160159054906101000a900460ff168160060160156101000a81548160ff021916908360ff1602179055506006820160169054906101000a900460ff168160060160166101000a81548160ff0219169083151502179055509050508373ffffffffffffffffffffffffffffffffffffffff166323b872dd612a416144ce565b30846040518463ffffffff1660e01b8152600401612a6193929190614d3d565b602060405180830381600087803b158015612a7b57600080fd5b505af1158015612a8f573d6000803e3d6000fd5b505050506040513d601f19601f82011682018060405250810190612ab3919061471b565b612af2576040517f08c379a0000000000000000000000000000000000000000000000000000000008152600401612ae990614fff565b60405180910390fd5b5b612b0060025460016144d6565b600281905550612b0e6144ce565b73ffffffffffffffffffffffffffffffffffffffff166002547f9f7d7f00ba58a9a390b539ccd768fdc2aa75359352495e12a4cf9d92e8c9289988888842604051612b5c94939291906151ba565b60405180910390a3505050505050565b606060008054906101000a900473ffffffffffffffffffffffffffffffffffffffff1673ffffffffffffffffffffffffffffffffffffffff16612bad6144ce565b73ffffffffffffffffffffffffffffffffffffffff1614612c03576040517f08c379a0000000000000000000000000000000000000000000000000000000008152600401612bfa9061517f565b60405180910390fd5b60011515600160008473ffffffffffffffffffffffffffffffffffffffff1673ffffffffffffffffffffffffffffffffffffffff16815260200190815260200160002060009054906101000a900460ff1615151415612c99576040518060400160405280600d81526020017f546869732069732061646d696e000000000000000000000000000000000000008152509050612cd2565b6040518060400160405280601181526020017f54686973206973206e6f742061646d696e00000000000000000000000000000081525090505b919050565b60008054906101000a900473ffffffffffffffffffffffffffffffffffffffff1673ffffffffffffffffffffffffffffffffffffffff16612d166144ce565b73ffffffffffffffffffffffffffffffffffffffff1614612d6c576040517f08c379a0000000000000000000000000000000000000000000000000000000008152600401612d639061517f565b60405180910390fd5b8073ffffffffffffffffffffffffffffffffffffffff16600360009054906101000a900473ffffffffffffffffffffffffffffffffffffffff1673ffffffffffffffffffffffffffffffffffffffff167ff833a50da09f770207024b90705c34b3f34e892fb8fb9befb0471240514d4bb242604051612deb919061519f565b60405180910390a380600360006101000a81548173ffffffffffffffffffffffffffffffffffffffff021916908373ffffffffffffffffffffffffffffffffffffffff16021790555050565b6000600460009054906101000a900473ffffffffffffffffffffffffffffffffffffffff1673ffffffffffffffffffffffffffffffffffffffff1663d89f2198836040518263ffffffff1660e01b8152600401612e949190614d22565b60206040518083038186803b158015612eac57600080fd5b505afa158015612ec0573d6000803e3d6000fd5b505050506040513d601f19601f82011682018060405250810190612ee4919061476d565b9050919050565b6000601260008481526020019081526020016000208281548110612f38577f4e487b7100000000000000000000000000000000000000000000000000000000600052603260045260246000fd5b9060005260206000209060050201905060006011600085815260200190815260200160002090508060030160009054906101000a900473ffffffffffffffffffffffffffffffffffffffff1673ffffffffffffffffffffffffffffffffffffffff16612fa26144ce565b73ffffffffffffffffffffffffffffffffffffffff1614612ff8576040517f08c379a0000000000000000000000000000000000000000000000000000000008152600401612fef90614f1f565b60405180910390fd5b60008260040160009054906101000a900460ff1660ff161461304f576040517f08c379a000000000000000000000000000000000000000000000000000000000815260040161304690614ebf565b60405180910390fd5b60008160060160159054906101000a900460ff1660ff16146130a6576040517f08c379a000000000000000000000000000000000000000000000000000000000815260040161309d90614eff565b60405180910390fd5b8060010154826002015411156130f1576040517f08c379a00000000000000000000000000000000000000000000000000000000081526004016130e890614fdf565b60405180910390fd5b8160000160009054906101000a900473ffffffffffffffffffffffffffffffffffffffff168160040160006101000a81548173ffffffffffffffffffffffffffffffffffffffff021916908373ffffffffffffffffffffffffffffffffffffffff16021790555060018160060160156101000a81548160ff021916908360ff16021790555060018260040160006101000a81548160ff021916908360ff16021790555042826003018190555082847f4e26d2058422e671478446da4522b7c1527f240c0b68519a064219769b062dce84600301546040516131d2919061519f565b60405180910390a350505050565b60011515600160006131f06144ce565b73ffffffffffffffffffffffffffffffffffffffff1673ffffffffffffffffffffffffffffffffffffffff16815260200190815260200160002060009054906101000a900460ff1615151480613298575060008054906101000a900473ffffffffffffffffffffffffffffffffffffffff1673ffffffffffffffffffffffffffffffffffffffff166132806144ce565b73ffffffffffffffffffffffffffffffffffffffff16145b6132d7576040517f08c379a00000000000000000000000000000000000000000000000000000000081526004016132ce9061503f565b60405180910390fd5b600060116000838152602001908152602001600020905060038160060160159054906101000a900460ff1660ff161415613346576040517f08c379a000000000000000000000000000000000000000000000000000000000815260040161333d906150bf565b60405180910390fd5b60008160060160159054906101000a900460ff1660ff16148061337d575060018160060160159054906101000a900460ff1660ff16145b6133bc576040517f08c379a00000000000000000000000000000000000000000000000000000000081526004016133b390614fbf565b60405180910390fd5b600081600101549050600082600101819055506000811415613413576040517f08c379a000000000000000000000000000000000000000000000000000000000815260040161340a90614f9f565b60405180910390fd5b60008260020154905060008360020181905550600081141561346a576040517f08c379a000000000000000000000000000000000000000000000000000000000815260040161346190614f9f565b60405180910390fd5b600115158360060160169054906101000a900460ff1615151415613561578260030160009054906101000a900473ffffffffffffffffffffffffffffffffffffffff1673ffffffffffffffffffffffffffffffffffffffff166108fc839081150290604051600060405180830381858888f193505050501580156134f2573d6000803e3d6000fd5b50600360009054906101000a900473ffffffffffffffffffffffffffffffffffffffff1673ffffffffffffffffffffffffffffffffffffffff166108fc829081150290604051600060405180830381858888f1935050505015801561355b573d6000803e3d6000fd5b506137a7565b600015158360060160169054906101000a900460ff16151514156137a6578260060160019054906101000a900473ffffffffffffffffffffffffffffffffffffffff1673ffffffffffffffffffffffffffffffffffffffff1663a9059cbb8460030160009054906101000a900473ffffffffffffffffffffffffffffffffffffffff16846040518363ffffffff1660e01b8152600401613602929190614d74565b602060405180830381600087803b15801561361c57600080fd5b505af1158015613630573d6000803e3d6000fd5b505050506040513d601f19601f82011682018060405250810190613654919061471b565b613693576040517f08c379a000000000000000000000000000000000000000000000000000000000815260040161368a90614ddf565b60405180910390fd5b8260060160019054906101000a900473ffffffffffffffffffffffffffffffffffffffff1673ffffffffffffffffffffffffffffffffffffffff1663a9059cbb600360009054906101000a900473ffffffffffffffffffffffffffffffffffffffff16836040518363ffffffff1660e01b8152600401613714929190614d74565b602060405180830381600087803b15801561372e57600080fd5b505af1158015613742573d6000803e3d6000fd5b505050506040513d601f19601f82011682018060405250810190613766919061471b565b6137a5576040517f08c379a000000000000000000000000000000000000000000000000000000000815260040161379c90614ddf565b60405180910390fd5b5b5b60038360060160156101000a81548160ff021916908360ff160217905550837f0134a7fef5c0043aa82009332dfac45da13b5603b22633f041979d3302495999426040516137f5919061519f565b60405180910390a250505050565b60008054906101000a900473ffffffffffffffffffffffffffffffffffffffff1673ffffffffffffffffffffffffffffffffffffffff166138426144ce565b73ffffffffffffffffffffffffffffffffffffffff1614613898576040517f08c379a000000000000000000000000000000000000000000000000000000000815260040161388f9061517f565b60405180910390fd5b600073ffffffffffffffffffffffffffffffffffffffff168173ffffffffffffffffffffffffffffffffffffffff1614156138d257600080fd5b8073ffffffffffffffffffffffffffffffffffffffff1660008054906101000a900473ffffffffffffffffffffffffffffffffffffffff1673ffffffffffffffffffffffffffffffffffffffff167f8be0079c531659141344cd1fd0a4f28419497f9722a3daafe3b4186f6b6457e060405160405180910390a3806000806101000a81548173ffffffffffffffffffffffffffffffffffffffff021916908373ffffffffffffffffffffffffffffffffffffffff16021790555050565b60025481565b600060116000848152602001908152602001600020905060006012600085815260200190815260200160002083815481106139f9577f4e487b7100000000000000000000000000000000000000000000000000000000600052603260045260246000fd5b906000526020600020906005020190508160030160009054906101000a900473ffffffffffffffffffffffffffffffffffffffff1673ffffffffffffffffffffffffffffffffffffffff16613a4c6144ce565b73ffffffffffffffffffffffffffffffffffffffff1614613aa2576040517f08c379a0000000000000000000000000000000000000000000000000000000008152600401613a9990614f1f565b60405180910390fd5b60018160040160009054906101000a900460ff1660ff1614613af9576040517f08c379a0000000000000000000000000000000000000000000000000000000008152600401613af090614f3f565b60405180910390fd5b60028260060160159054906101000a900460ff1660ff161415613b51576040517f08c379a0000000000000000000000000000000000000000000000000000000008152600401613b489061505f565b60405180910390fd5b60058260060160159054906101000a900460ff1660ff1614613ba8576040517f08c379a0000000000000000000000000000000000000000000000000000000008152600401613b9f90614f7f565b60405180910390fd5b6000613bbc83600101548360020154614534565b905060008260020154905060008460010181905550600083600201819055506000811415613c1f576040517f08c379a0000000000000000000000000000000000000000000000000000000008152600401613c1690614f9f565b60405180910390fd5b6000613c2f8560020154846144d6565b9050600085600201819055506000811415613c7f576040517f08c379a0000000000000000000000000000000000000000000000000000000008152600401613c7690614f9f565b60405180910390fd5b6000613c93856003015486600101546144d6565b90506000613ca2846064614593565b90506000613cb182600a6145f1565b90506000613cbf8683614534565b90506000811415613d05576040517f08c379a0000000000000000000000000000000000000000000000000000000008152600401613cfc90614f9f565b60405180910390fd5b6000613d1186846144d6565b90506000811415613d57576040517f08c379a0000000000000000000000000000000000000000000000000000000008152600401613d4e90614f9f565b60405180910390fd5b600115158a60060160169054906101000a900460ff1615151415613f375789600501548511613e5b578860000160009054906101000a900473ffffffffffffffffffffffffffffffffffffffff1673ffffffffffffffffffffffffffffffffffffffff166108fc839081150290604051600060405180830381858888f19350505050158015613dea573d6000803e3d6000fd5b508960030160009054906101000a900473ffffffffffffffffffffffffffffffffffffffff1673ffffffffffffffffffffffffffffffffffffffff166108fc829081150290604051600060405180830381858888f19350505050158015613e55573d6000803e3d6000fd5b50613f32565b8860000160009054906101000a900473ffffffffffffffffffffffffffffffffffffffff1673ffffffffffffffffffffffffffffffffffffffff166108fc889081150290604051600060405180830381858888f19350505050158015613ec5573d6000803e3d6000fd5b508960030160009054906101000a900473ffffffffffffffffffffffffffffffffffffffff1673ffffffffffffffffffffffffffffffffffffffff166108fc879081150290604051600060405180830381858888f19350505050158015613f30573d6000803e3d6000fd5b505b6143b8565b600015158a60060160169054906101000a900460ff16151514156143b7578960050154851161418d578960060160019054906101000a900473ffffffffffffffffffffffffffffffffffffffff1673ffffffffffffffffffffffffffffffffffffffff1663a9059cbb8a60000160009054906101000a900473ffffffffffffffffffffffffffffffffffffffff16846040518363ffffffff1660e01b8152600401613fe3929190614d74565b602060405180830381600087803b158015613ffd57600080fd5b505af1158015614011573d6000803e3d6000fd5b505050506040513d601f19601f82011682018060405250810190614035919061471b565b614074576040517f08c379a000000000000000000000000000000000000000000000000000000000815260040161406b90614ddf565b60405180910390fd5b8960060160019054906101000a900473ffffffffffffffffffffffffffffffffffffffff1673ffffffffffffffffffffffffffffffffffffffff1663a9059cbb8b60030160009054906101000a900473ffffffffffffffffffffffffffffffffffffffff16836040518363ffffffff1660e01b81526004016140f7929190614d74565b602060405180830381600087803b15801561411157600080fd5b505af1158015614125573d6000803e3d6000fd5b505050506040513d601f19601f82011682018060405250810190614149919061471b565b614188576040517f08c379a000000000000000000000000000000000000000000000000000000000815260040161417f90614ddf565b60405180910390fd5b6143b6565b8960060160019054906101000a900473ffffffffffffffffffffffffffffffffffffffff1673ffffffffffffffffffffffffffffffffffffffff1663a9059cbb8a60000160009054906101000a900473ffffffffffffffffffffffffffffffffffffffff16896040518363ffffffff1660e01b8152600401614210929190614d74565b602060405180830381600087803b15801561422a57600080fd5b505af115801561423e573d6000803e3d6000fd5b505050506040513d601f19601f82011682018060405250810190614262919061471b565b6142a1576040517f08c379a000000000000000000000000000000000000000000000000000000000815260040161429890614ddf565b60405180910390fd5b8960060160019054906101000a900473ffffffffffffffffffffffffffffffffffffffff1673ffffffffffffffffffffffffffffffffffffffff1663a9059cbb8b60030160009054906101000a900473ffffffffffffffffffffffffffffffffffffffff16886040518363ffffffff1660e01b8152600401614324929190614d74565b602060405180830381600087803b15801561433e57600080fd5b505af1158015614352573d6000803e3d6000fd5b505050506040513d601f19601f82011682018060405250810190614376919061471b565b6143b5576040517f08c379a00000000000000000000000000000000000000000000000000000000081526004016143ac90614ddf565b60405180910390fd5b5b5b5b60028a60060160156101000a81548160ff021916908360ff160217905550600460009054906101000a900473ffffffffffffffffffffffffffffffffffffffff1673ffffffffffffffffffffffffffffffffffffffff1663196d6e6c8b60040160009054906101000a900473ffffffffffffffffffffffffffffffffffffffff166040518263ffffffff1660e01b81526004016144559190614d22565b600060405180830381600087803b15801561446f57600080fd5b505af1158015614483573d6000803e3d6000fd5b505050508a8c7f5042dbe01cefd07bdc53268262ecf7334048acf469986a59bf5f412bd2772311426040516144b8919061519f565b60405180910390a3505050505050505050505050565b600033905090565b60008082846144e5919061527b565b90508381101561452a576040517f08c379a000000000000000000000000000000000000000000000000000000000815260040161452190614e1f565b60405180910390fd5b8091505092915050565b600082821115614579576040517f08c379a00000000000000000000000000000000000000000000000000000000081526004016145709061515f565b60405180910390fd5b60008284614587919061535c565b90508091505092915050565b60008082116145d7576040517f08c379a00000000000000000000000000000000000000000000000000000000081526004016145ce906150df565b60405180910390fd5b600082846145e591906152d1565b90508091505092915050565b6000808314156146045760009050614666565b600082846146129190615302565b905082848261462191906152d1565b14614661576040517f08c379a000000000000000000000000000000000000000000000000000000000815260040161465890614e5f565b60405180910390fd5b809150505b92915050565b600034905090565b60008135905061468381615bb1565b92915050565b60008151905061469881615bc8565b92915050565b6000813590506146ad81615bdf565b92915050565b6000813590506146c281615bf6565b92915050565b6000813590506146d781615c06565b92915050565b6000815190506146ec81615c06565b92915050565b60006020828403121561470457600080fd5b600061471284828501614674565b91505092915050565b60006020828403121561472d57600080fd5b600061473b84828501614689565b91505092915050565b60006020828403121561475657600080fd5b6000614764848285016146c8565b91505092915050565b60006020828403121561477f57600080fd5b600061478d848285016146dd565b91505092915050565b6000806000606084860312156147ab57600080fd5b60006147b9868287016146c8565b93505060206147ca868287016146b3565b92505060406147db8682870161469e565b9150509250925092565b600080604083850312156147f857600080fd5b6000614806858286016146c8565b9250506020614817858286016146c8565b9150509250929050565b60008060006060848603121561483657600080fd5b6000614844868287016146c8565b9350506020614855868287016146c8565b9250506040614866868287016146c8565b9150509250925092565b61487981615390565b82525050565b614888816153fd565b82525050565b61489781615421565b82525050565b60006148a88261525f565b6148b2818561526a565b93506148c2818560208601615433565b6148cb816154f3565b840191505092915050565b60006148e3600e8361526a565b91506148ee82615504565b602082019050919050565b600061490660158361526a565b91506149118261552d565b602082019050919050565b600061492960128361526a565b915061493482615556565b602082019050919050565b600061494c601b8361526a565b91506149578261557f565b602082019050919050565b600061496f601a8361526a565b915061497a826155a8565b602082019050919050565b600061499260178361526a565b915061499d826155d1565b602082019050919050565b60006149b5600e8361526a565b91506149c0826155fa565b602082019050919050565b60006149d8601e8361526a565b91506149e382615623565b602082019050919050565b60006149fb60218361526a565b9150614a068261564c565b604082019050919050565b6000614a1e60278361526a565b9150614a298261569b565b604082019050919050565b6000614a41602c8361526a565b9150614a4c826156ea565b604082019050919050565b6000614a6460248361526a565b9150614a6f82615739565b604082019050919050565b6000614a8760178361526a565b9150614a9282615788565b602082019050919050565b6000614aaa601c8361526a565b9150614ab5826157b1565b602082019050919050565b6000614acd601c8361526a565b9150614ad8826157da565b602082019050919050565b6000614af060168361526a565b9150614afb82615803565b602082019050919050565b6000614b1360378361526a565b9150614b1e8261582c565b604082019050919050565b6000614b36602d8361526a565b9150614b418261587b565b604082019050919050565b6000614b5960138361526a565b9150614b64826158ca565b602082019050919050565b6000614b7c60268361526a565b9150614b87826158f3565b604082019050919050565b6000614b9f60168361526a565b9150614baa82615942565b602082019050919050565b6000614bc260118361526a565b9150614bcd8261596b565b602082019050919050565b6000614be560238361526a565b9150614bf082615994565b604082019050919050565b6000614c0860218361526a565b9150614c13826159e3565b604082019050919050565b6000614c2b600e8361526a565b9150614c3682615a32565b602082019050919050565b6000614c4e60108361526a565b9150614c5982615a5b565b602082019050919050565b6000614c7160268361526a565b9150614c7c82615a84565b604082019050919050565b6000614c9460288361526a565b9150614c9f82615ad3565b604082019050919050565b6000614cb7601e8361526a565b9150614cc282615b22565b602082019050919050565b6000614cda60148361526a565b9150614ce582615b4b565b602082019050919050565b6000614cfd60118361526a565b9150614d0882615b74565b602082019050919050565b614d1c816153f3565b82525050565b6000602082019050614d376000830184614870565b92915050565b6000606082019050614d526000830186614870565b614d5f6020830185614870565b614d6c6040830184614d13565b949350505050565b6000604082019050614d896000830185614870565b614d966020830184614d13565b9392505050565b60006020820190508181036000830152614db7818461489d565b905092915050565b60006020820190508181036000830152614dd8816148d6565b9050919050565b60006020820190508181036000830152614df8816148f9565b9050919050565b60006020820190508181036000830152614e188161491c565b9050919050565b60006020820190508181036000830152614e388161493f565b9050919050565b60006020820190508181036000830152614e5881614962565b9050919050565b60006020820190508181036000830152614e7881614985565b9050919050565b60006020820190508181036000830152614e98816149a8565b9050919050565b60006020820190508181036000830152614eb8816149cb565b9050919050565b60006020820190508181036000830152614ed8816149ee565b9050919050565b60006020820190508181036000830152614ef881614a11565b9050919050565b60006020820190508181036000830152614f1881614a34565b9050919050565b60006020820190508181036000830152614f3881614a57565b9050919050565b60006020820190508181036000830152614f5881614a7a565b9050919050565b60006020820190508181036000830152614f7881614a9d565b9050919050565b60006020820190508181036000830152614f9881614ac0565b9050919050565b60006020820190508181036000830152614fb881614ae3565b9050919050565b60006020820190508181036000830152614fd881614b06565b9050919050565b60006020820190508181036000830152614ff881614b29565b9050919050565b6000602082019050818103600083015261501881614b4c565b9050919050565b6000602082019050818103600083015261503881614b6f565b9050919050565b6000602082019050818103600083015261505881614b92565b9050919050565b6000602082019050818103600083015261507881614bb5565b9050919050565b6000602082019050818103600083015261509881614bd8565b9050919050565b600060208201905081810360008301526150b881614bfb565b9050919050565b600060208201905081810360008301526150d881614c1e565b9050919050565b600060208201905081810360008301526150f881614c41565b9050919050565b6000602082019050818103600083015261511881614c64565b9050919050565b6000602082019050818103600083015261513881614c87565b9050919050565b6000602082019050818103600083015261515881614caa565b9050919050565b6000602082019050818103600083015261517881614ccd565b9050919050565b6000602082019050818103600083015261519881614cf0565b9050919050565b60006020820190506151b46000830184614d13565b92915050565b60006080820190506151cf6000830187614d13565b6151dc602083018661488e565b6151e9604083018561487f565b6151f66060830184614d13565b95945050505050565b60006040820190506152146000830185614d13565b6152216020830184614d13565b9392505050565b600060608201905061523d6000830186614d13565b61524a6020830185614d13565b6152576040830184614d13565b949350505050565b600081519050919050565b600082825260208201905092915050565b6000615286826153f3565b9150615291836153f3565b9250827fffffffffffffffffffffffffffffffffffffffffffffffffffffffffffffffff038211156152c6576152c5615466565b5b828201905092915050565b60006152dc826153f3565b91506152e7836153f3565b9250826152f7576152f6615495565b5b828204905092915050565b600061530d826153f3565b9150615318836153f3565b9250817fffffffffffffffffffffffffffffffffffffffffffffffffffffffffffffffff048311821515161561535157615350615466565b5b828202905092915050565b6000615367826153f3565b9150615372836153f3565b92508282101561538557615384615466565b5b828203905092915050565b600061539b826153d3565b9050919050565b60008115159050919050565b60006153b982615390565b9050919050565b60008190506153ce82615b9d565b919050565b600073ffffffffffffffffffffffffffffffffffffffff82169050919050565b6000819050919050565b60006154088261540f565b9050919050565b600061541a826153d3565b9050919050565b600061542c826153c0565b9050919050565b60005b83811015615451578082015181840152602081019050615436565b83811115615460576000848401525b50505050565b7f4e487b7100000000000000000000000000000000000000000000000000000000600052601160045260246000fd5b7f4e487b7100000000000000000000000000000000000000000000000000000000600052601260045260246000fd5b7f4e487b7100000000000000000000000000000000000000000000000000000000600052602160045260246000fd5b6000601f19601f8301169050919050565b7f696e76616c696420416d6f756e74000000000000000000000000000000000000600082015250565b7f7472616e7366657220746f6b656e206661696c65640000000000000000000000600082015250565b7f436f696e20776f756c64206265206c6f73740000000000000000000000000000600082015250565b7f536166654d6174683a206164646974696f6e206f766572666c6f770000000000600082015250565b7f596f75206861766520616c72656164792077697468647261776e000000000000600082015250565b7f6d756c7469706c69636174696f6e206f766572666c6f77000000000000000000600082015250565b7f696e76616c696420616d6f756e74000000000000000000000000000000000000600082015250565b7f546869732070726f6a6563742063616e6e6f742062652064656c657465640000600082015250565b7f546869732070726f706f73616c20697320616c7265616479206163636570746560008201527f6400000000000000000000000000000000000000000000000000000000000000602082015250565b7f546869732070726f6a656374206973206e6f7420696e50726f6772657373206160008201527f6e79206d6f726500000000000000000000000000000000000000000000000000602082015250565b7f546869732070726f6a6563742063616e6e6f74206163636570742070726f706f60008201527f73616c7320616e796d6f72650000000000000000000000000000000000000000602082015250565b7f596f7520617265206e6f7420656d706c6f796565206f6620746869732070726f60008201527f6a65637400000000000000000000000000000000000000000000000000000000602082015250565b7f596f752063616e6e6f742066696e616c697a6520796574000000000000000000600082015250565b7f546869732070726f706f73616c206973206e6f74206163637074656400000000600082015250565b7f70726f6a656374206973206e6f742064656c6976657265642079657400000000600082015250565b7f4e6f206d756c7469706c65207769746864726177202100000000000000000000600082015250565b7f546869732070726f6a6563742069732066696e69736865642c2062616e6e656460008201527f2c2064656c697665726564206f722063616e63656c6564000000000000000000602082015250565b7f596f7520646f6e2774206861766520656e6f756768206275646765742c20706c60008201527f6561736520616464206d6f726500000000000000000000000000000000000000602082015250565b7f7472616e7366657246726f6d206661696c656400000000000000000000000000600082015250565b7f596f752063616e6e6f742070726f706f7365206f6e20796f7572206f776e207060008201527f726f6a6563740000000000000000000000000000000000000000000000000000602082015250565b7f596f7520617265206e6f7420617574686f72697a656400000000000000000000600082015250565b7f616c72656164792066696e616c697a6564000000000000000000000000000000600082015250565b7f596f752063616e6e6f742070726f706f7365206d6f7265207468616e2062756460008201527f6765740000000000000000000000000000000000000000000000000000000000602082015250565b7f596f75722070726f706f73616c206973206e6f7420616363657074656420796560008201527f7400000000000000000000000000000000000000000000000000000000000000602082015250565b7f616c72656164792062616e6e6564000000000000000000000000000000000000600082015250565b7f6469766973696f6e206279207a65726f00000000000000000000000000000000600082015250565b7f596f7520617265206e6f7420667265654c616e636572206f662074686973207060008201527f726f6a6563740000000000000000000000000000000000000000000000000000602082015250565b7f596f752063616e6e6f742064656c6976657220746869732070726f6a6563742060008201527f616e79206d6f7265000000000000000000000000000000000000000000000000602082015250565b7f436f696e2076616c756520646f65736e2774206d61746368206f666665720000600082015250565b7f7375627472616374696f6e206f766572666c6f77000000000000000000000000600082015250565b7f596f7520617265206e6f74206f776e6572000000000000000000000000000000600082015250565b60068110615bae57615bad6154c4565b5b50565b615bba81615390565b8114615bc557600080fd5b50565b615bd1816153a2565b8114615bdc57600080fd5b50565b615be8816153ae565b8114615bf357600080fd5b50565b60068110615c0357600080fd5b50565b615c0f816153f3565b8114615c1a57600080fd5b5056fea2646970667358221220b39dbb58edd961c92b4a36b1b330df49409e9faf861afeda56d2e827382e769e64736f6c63430008010033",
  "immutableReferences": {},
  "source": "// SPDX-License-Identifier: no-licence\r\n\r\npragma solidity ^0.8.1;\r\n\r\nimport \"../token/IERC20.sol\";\r\nimport \"../ownership/Admin.sol\";\r\nimport \"../reputation/Reputation.sol\";\r\nimport \"../lib/SafeMath.sol\";\r\n\r\ncontract Freelancer is Admin {\r\n    \r\n    // address ether :0x0000000000000000000000000000000000000000\r\n    \r\n    using SafeMath for *;\r\n    \r\n    uint constant private ESCROW_PERCENTAGE = 10;\r\n    uint constant private PENALTY_PERCENTAGE = 10;\r\n    \r\n    // type of project\r\n    enum ProjectType {Programing, Art, Translate, Graphics, Marketing, Others} \r\n    \r\n    // Project made by employee\r\n    struct Project {\r\n        uint projectId;         // id\r\n        uint budget;            // amount of budged payed by employee\r\n        uint escrow;            // escrow saved by employee \r\n        address employee;       // address employee\r\n        address employer;       // address accpeted freeLancer (default is null)\r\n        uint deliveredDate;     // delivered date of project by freeLancer\r\n        ProjectType projectType;\r\n        IERC20 currency;\r\n        uint8 status;   // 0: created, 1: inProgress , 2: finished , 3: disabled, 4: canceled by user, 5: delivered\r\n        bool isCurrencyEther;\r\n    }\r\n    \r\n    // proposal made by freeLancer\r\n    struct Proposal {\r\n        address freeLancer;\r\n        uint proposedTime;          // offered time requires to finish project in seconds \r\n        uint proposedAmout;\r\n        uint acceptedDate;          // acceptedDate \r\n        uint8 status;               // 0: not accepted, 1: accepted\r\n    }\r\n    \r\n    // global project counter in smart contract\r\n    uint public projectCounter = 0;     \r\n    \r\n    // address which used to recieve payments\r\n    address wallet;                \r\n\r\n    // global object of reputation\r\n    Reputation reputation;  \r\n    \r\n    // project instance\r\n    Project projectInstance;\r\n    \r\n    // proposal instance\r\n    Proposal proposalInstance;\r\n    \r\n    mapping (uint => Project) projects;     // projectId => Project\r\n    mapping (uint => Proposal[]) proposals;    // projectId => Proposal\r\n    \r\n    constructor(address _reputation, address _wallet) {\r\n        owner = _msgSender();\r\n        reputation = Reputation(_reputation);\r\n        wallet = _wallet;\r\n    }\r\n    \r\n    // view functions\r\n    // shows the owner address\r\n    function getOwner() external validAdmin view returns(address) {\r\n        return owner;\r\n    }\r\n    \r\n    // shows the current owner wallet\r\n    function showWallet() external view validAdmin returns(address) {       \r\n        return wallet;\r\n    }\r\n    \r\n    // Return the number of successful projects w/o dispute for spesific freeLancer\r\n    // It is used to measure freeLancer's reputation\r\n    function getWithoutDispute(address _freeLancer) external view returns (uint) {\r\n        return reputation.getWithoutDispute(_freeLancer);\r\n    }\r\n    // Return the number of disputes that freeLancer won...\r\n    function getLancerWonDispute(address _freeLancer) external view returns(uint) {\r\n        return reputation.getLancerWonDispute(_freeLancer);\r\n    }\r\n    // Return the number of disputes that freeLancer lost and employee won...\r\n    // This number would be a negative point for freeLancer \r\n    function getLancerLostDispute(address _freeLancer) external view returns(uint) {\r\n        return reputation.getLancerLostDispute(_freeLancer);\r\n    }\r\n    \r\n    // changes the current owner wallet\r\n    function changeWallet(address _newWallet) external onlyOwner {          \r\n        emit WalletChanged(wallet, _newWallet, block.timestamp);\r\n        wallet = _newWallet;\r\n    }\r\n    \r\n    // employee creates new project\r\n    function createProject(uint _budget, ProjectType _projectType, IERC20 _currency) external payable {\r\n        \r\n        require(_budget >= 100 ,\"invalid amount\");\r\n        // payment calculations\r\n        uint x = SafeMath.div(_budget, 100);\r\n        uint _escrow = SafeMath.mul(x, ESCROW_PERCENTAGE);\r\n        uint payment = SafeMath.add(_budget, _escrow);\r\n        \r\n        projectInstance.projectId = SafeMath.add(projectCounter, 1);\r\n        projectInstance.budget = _budget;\r\n        projectInstance.escrow = _escrow;\r\n        projectInstance.employee = _msgSender();\r\n        projectInstance.employer = address(0x0);\r\n        projectInstance.deliveredDate = 0;\r\n        projectInstance.projectType = _projectType;\r\n        projectInstance.currency = _currency;\r\n        projectInstance.status = 0;\r\n        projectInstance.isCurrencyEther = true;\r\n        \r\n        // use ether\r\n        if (address(_currency) == address(0x0)) {   \r\n            require(_msgValue() == payment, \"Coin value doesn't match offer\");\r\n            // create new project and insert it in projects\r\n            projects[SafeMath.add(projectCounter, 1)] = projectInstance;\r\n            // deposit ether in project\r\n\r\n        }\r\n        // use Token\r\n        else { \r\n            require(_msgValue() == 0, \"Coin would be lost\");\r\n            \r\n            projectInstance.isCurrencyEther = false;\r\n            \r\n            projects[SafeMath.add(projectCounter, 1)] = projectInstance;\r\n            // deposit token in project\r\n            require(_currency.transferFrom(_msgSender(), address(this), payment),\"transferFrom failed\");\r\n\r\n        }\r\n        \r\n        // increase the projectId for next project\r\n        projectCounter = SafeMath.add(projectCounter, 1);  \r\n        emit ProjectCreated(projectCounter, _msgSender(), _budget, _projectType, _currency, block.timestamp);\r\n    }\r\n    \r\n    // disable Project and withdraw budget and escrow\r\n    function cancelProject(uint _projectId) external {      // only employee\r\n        \r\n        Project storage project = projects[_projectId];\r\n        require(project.status == 0, \"This project cannot be deleted\");\r\n        require(_msgSender() == project.employee, \"You are not employee of this project\");\r\n        \r\n        // no reentrancy attack\r\n        uint payment = SafeMath.add(project.budget, project.escrow);\r\n        project.budget = 0;\r\n        require(payment != 0, \"You have already withdrawn\");\r\n        \r\n        // use ether\r\n        if (project.isCurrencyEther == true) {\r\n            // pay employee\r\n            payable(project.employee).transfer(payment); \r\n \r\n        }\r\n        // use token\r\n        else if (project.isCurrencyEther == false) {\r\n            // pay employee\r\n            require(project.currency.transfer(project.employee, payment),\"transfer token failed\");\r\n\r\n        }\r\n        // set status to canceled by user\r\n        project.status = 4;\r\n        emit ProjectCanceled(_projectId, project.employee, block.timestamp);\r\n    }\r\n    \r\n    // freeLancers create proposals\r\n    function createProposal(uint _projectId, uint _proposedAmount, uint _proposedTime) external {\r\n        \r\n        Project memory project = projects[_projectId];\r\n        require(_msgSender() != project.employee, \"You cannot propose on your own project\");\r\n        require(project.status == 0, \"This project cannot accept proposals anymore\");\r\n        require(_proposedAmount <= project.budget, \"You cannot propose more than budget\");\r\n        require(_proposedTime > 0, \"invalid Amount\");\r\n        \r\n        proposalInstance.freeLancer = _msgSender();\r\n        proposalInstance.proposedTime = _proposedTime;\r\n        proposalInstance.proposedAmout = _proposedAmount;\r\n        proposalInstance.acceptedDate = 0;\r\n        proposalInstance.status = 0;\r\n        \r\n        // create proposals for spesific project\r\n        proposals[project.projectId].push(proposalInstance);\r\n        \r\n        emit ProposalCreated(_projectId, _msgSender(), _proposedAmount, _proposedTime, block.timestamp);\r\n    }\r\n    \r\n    // employee accpets certain proposal\r\n    function acceptProposal(uint _projectId, uint _proposalId) external {\r\n        \r\n        Proposal storage proposal = proposals[_projectId][_proposalId];\r\n        Project storage project = projects[_projectId];\r\n        \r\n        require(_msgSender() == project.employee, \"You are not employee of this project\");\r\n        require(proposal.status == 0, \"This proposal is already accepted\");\r\n        require(project.status == 0, \"This project cannot accept proposals anymore\");\r\n        require(proposal.proposedAmout <= project.budget, \"You don't have enough budget, please add more\");\r\n        \r\n        // set employer in project\r\n        project.employer = proposal.freeLancer;\r\n        // set project status to inProgress\r\n        project.status = 1;\r\n        // set proposal status to accepted\r\n        proposal.status = 1;\r\n        // set proposal accept date\r\n        proposal.acceptedDate = block.timestamp;\r\n        \r\n        emit ProposalAccepted(_projectId, _proposalId, proposal.acceptedDate);\r\n    }\r\n    \r\n    // freeLancer call this function and deliver the Project\r\n    function deliverProject(uint _projectId, uint _proposalId) external {\r\n        \r\n        Proposal memory proposal = proposals[_projectId][_proposalId];\r\n        Project storage project = projects[_projectId];\r\n        require(_msgSender() == project.employer && _msgSender() == proposal.freeLancer\r\n        , \"You are not freeLancer of this project\");\r\n        require(proposal.status == 1, \"Your proposal is not accepted yet\");\r\n        require(project.status == 1, \"You cannot deliver this project any more\");\r\n        // set deliver date\r\n        project.deliveredDate = block.timestamp;\r\n        // set delivered status\r\n        project.status = 5;\r\n        \r\n        emit ProjectDelivered(_projectId, _proposalId, block.timestamp);\r\n    }\r\n    \r\n    // employee finalizes the Project\r\n    function finalizeProject(uint _projectId, uint _proposalId) external {\r\n        \r\n        Project storage project = projects[_projectId];\r\n        Proposal storage proposal = proposals[_projectId][_proposalId];\r\n        require(_msgSender() == project.employee, \"You are not employee of this project\"); \r\n        require(proposal.status == 1, \"You cannot finalize yet\");\r\n        require(project.status != 2, \"already finalized\");\r\n        require(project.status == 5, \"project is not delivered yet\");\r\n    \r\n        // calculate exceeded budget \r\n        uint exceedAmount = SafeMath.sub(project.budget, proposal.proposedAmout);\r\n        \r\n        // no reentrancy attack\r\n        uint payment = proposal.proposedAmout;\r\n        project.budget = 0;\r\n        proposal.proposedAmout = 0;\r\n        require(payment != 0, \"No multiple withdraw !\");\r\n        \r\n        // no reentrancy attack\r\n        uint escrowPayment = SafeMath.add(project.escrow, exceedAmount);\r\n        project.escrow = 0;\r\n        require(escrowPayment != 0, \"No multiple withdraw !\");\r\n        \r\n        // timeWindow for delivering project without penalty\r\n        uint timeWindow = SafeMath.add(proposal.acceptedDate, proposal.proposedTime); \r\n        \r\n        // calculations for penalty\r\n        // %PENALTY_PERCENTAGE penalty subtracted from freeLancer and added to employee\r\n        uint x = SafeMath.div(payment, 100);\r\n        uint penaltyAmount = SafeMath.mul(x, PENALTY_PERCENTAGE);\r\n                \r\n        uint freeLancerPayment = SafeMath.sub(payment, penaltyAmount);\r\n        require(freeLancerPayment != 0, \"No multiple withdraw !\");\r\n        \r\n        uint employeePayment = SafeMath.add(escrowPayment, penaltyAmount);\r\n        require(employeePayment != 0, \"No multiple withdraw !\");\r\n        \r\n        // use ether\r\n        if (project.isCurrencyEther == true) {  \r\n            \r\n            // late delivered\r\n            if (timeWindow <= project.deliveredDate) {\r\n                // pay freeLancer\r\n                payable(proposal.freeLancer).transfer(freeLancerPayment);\r\n\r\n                // pay to employee\r\n                payable(project.employee).transfer(employeePayment);\r\n\r\n            }\r\n            // regular delivered\r\n            else {\r\n                // pay freeLancer\r\n                payable(proposal.freeLancer).transfer(payment); \r\n \r\n                // pay to employee\r\n                payable(project.employee).transfer(escrowPayment);\r\n \r\n            }\r\n        }\r\n        // use tokens\r\n        else if (project.isCurrencyEther == false) {\r\n            \r\n            // late delivered\r\n            if (timeWindow <= project.deliveredDate) {\r\n                // pay freeLancer\r\n                require(project.currency.transfer(proposal.freeLancer, freeLancerPayment),\"transfer token failed\");\r\n\r\n                // pay to employee\r\n                require(project.currency.transfer(project.employee, employeePayment),\"transfer token failed\");\r\n\r\n            }\r\n            // regular delivered\r\n            else {\r\n                // pay freeLancer\r\n                require(project.currency.transfer(proposal.freeLancer, payment),\"transfer token failed\");\r\n\r\n                // pay to employee\r\n                require(project.currency.transfer(project.employee, escrowPayment),\"transfer token failed\");\r\n\r\n            }\r\n        }\r\n        // set status to finished\r\n        project.status = 2;\r\n        // set reputation point\r\n        reputation.setWithoutDispute(project.employer);\r\n        \r\n        emit ProjectFinalized(_projectId, _proposalId, block.timestamp);\r\n    }\r\n\r\n    // admins use this for dispute resolution\r\n    function arbitration(uint _projectId, uint _proposalId, uint _vote) external validAdmin {\r\n        // vote 1: employee, vote 2: freeLancer\r\n        \r\n        Project storage project = projects[_projectId];\r\n        Proposal memory proposal = proposals[_projectId][_proposalId];\r\n        require(project.status != 2, \"already finalized\");\r\n        require(proposal.status == 1, \"This proposal is not accpted\");\r\n        require(project.status == 1 || project.status == 5, \"This project is not inProgress any more\");\r\n        \r\n        // calculate exceeded budget \r\n        uint exceedAmount = SafeMath.sub(project.budget, proposal.proposedAmout);\r\n        // no reentrancy attack\r\n        uint payment = proposal.proposedAmout;\r\n        project.budget = 0;\r\n        proposal.proposedAmout = 0;\r\n        require(payment != 0, \"No multiple withdraw !\");\r\n        \r\n        // no reentrancy attack\r\n        uint escrowPayment = project.escrow;\r\n        project.escrow = 0;\r\n        require(escrowPayment != 0, \"No multiple withdraw !\");\r\n        \r\n        // employee won disputation\r\n        if(_vote == 1) {\r\n            \r\n            // pay employee\r\n            uint employeePayment = SafeMath.add(payment, exceedAmount);\r\n            // use ether\r\n            if (project.isCurrencyEther == true) {  \r\n               \r\n                // pay employee\r\n                payable(project.employee).transfer(employeePayment); \r\n\r\n                // pay project escrow as arbitration commission to marketplace owner\r\n                payable(wallet).transfer(escrowPayment);\r\n\r\n            }\r\n            // use tokens\r\n            else if (project.isCurrencyEther == false) {\r\n                // pay employee\r\n                require(project.currency.transfer(project.employee, employeePayment),\"transfer token failed\");\r\n\r\n                // pay project escrow as arbitration commission to marketplace owner\r\n                require(project.currency.transfer(wallet, escrowPayment),\"transfer token failed\");\r\n\r\n            }\r\n            // set status to finished\r\n            project.status = 2;\r\n            // set reputation point\r\n            reputation.setLanserLostDispute(project.employer);\r\n        }\r\n        // freeLancer won disputation\r\n        else if (_vote == 2) {\r\n            \r\n            // pay freeLancer\r\n            uint freeLancerPayment = SafeMath.add(payment, exceedAmount);\r\n            // use ether\r\n            if (project.isCurrencyEther == true) {  \r\n                // pay freeLancer\r\n                payable(proposal.freeLancer).transfer(freeLancerPayment);\r\n\r\n                // pay project escrow as arbitration commission to marketplace owner\r\n                payable(wallet).transfer(escrowPayment);\r\n\r\n            }\r\n            // use tokens\r\n            else if (project.isCurrencyEther == false) {\r\n                // pay freeLancer\r\n                require(project.currency.transfer(proposal.freeLancer, freeLancerPayment),\"transfer token failed\");\r\n\r\n                // pay project escrow as arbitration commission to marketplace owner\r\n                require(project.currency.transfer(wallet, escrowPayment),\"transfer token failed\");\r\n\r\n            }\r\n            // set status to finished\r\n            project.status = 2;\r\n            // set reputation point\r\n            reputation.setLanserWonDispute(project.employer);\r\n        }\r\n        emit ProjectArbitrated(_projectId, _proposalId, _vote, block.timestamp);\r\n    }\r\n    \r\n    // admin can ban projects violating rules and take escrow as penalty\r\n    function disableProject(uint _projectId) external validAdmin {\r\n        \r\n        Project storage project = projects[_projectId];\r\n        require(project.status != 3, \"already banned\");\r\n        require(project.status == 0 || project.status == 1,\r\n        \"This project is finished, banned, delivered or canceled\");\r\n        \r\n        // no reentrancy attack\r\n        uint payment = project.budget;\r\n        project.budget = 0;\r\n        require(payment != 0, \"No multiple withdraw !\");\r\n        \r\n        // no reentrancy attack\r\n        uint escrowPayment = project.escrow;\r\n        project.escrow = 0;\r\n        require(escrowPayment != 0, \"No multiple withdraw !\");\r\n        // use ether\r\n        if (project.isCurrencyEther == true) {  \r\n            // pay employee\r\n            payable(project.employee).transfer(payment); \r\n\r\n            // pay project escrow to marketplace owner as penalty to rule violation\r\n            payable(wallet).transfer(escrowPayment);\r\n\r\n        }\r\n        // use tokens\r\n        else if (project.isCurrencyEther == false) {\r\n            // pay employee\r\n            require(project.currency.transfer(project.employee, payment),\"transfer token failed\");\r\n            // pay project escrow to marketplace owner as penalty to rule violation\r\n            require(project.currency.transfer(wallet, escrowPayment),\"transfer token failed\");  \r\n        }\r\n        // set project status to banned \r\n        project.status = 3;\r\n        \r\n        emit ProjectDisabled(_projectId, block.timestamp);\r\n    }\r\n    \r\n    event WalletChanged(address indexed oldWallet, address indexed newWallet, uint walletChangeDate);\r\n    event ProjectCreated(uint indexed projectId, address indexed employee, uint budget, ProjectType projectType, IERC20 currency, uint projectCreationDate);\r\n    event ProjectCanceled(uint indexed projectId, address indexed employee, uint projectCancelDate);\r\n    event ProposalCreated(uint indexed projectId, address indexed freeLancer, uint proposedAmount, uint proposedTime, uint proposalCreationDate);\r\n    event ProposalAccepted(uint indexed projectId, uint indexed proposalId, uint acceptDate);\r\n    event ProjectDelivered(uint indexed projectId, uint indexed proposalId, uint deliveredDate);\r\n    event ProjectFinalized(uint indexed projectId, uint indexed proposalId, uint finalizedDate);\r\n    event ProjectArbitrated(uint indexed projectId, uint indexed proposalId, uint vote, uint arbitrationDate);\r\n    event ProjectDisabled(uint indexed projectId, uint disableDate);\r\n}",
  "sourcePath": "E:/Ethereum projects/Freelancer/src/contracts/market/Freelancer.sol",
  "compiler": {
    "name": "solc",
    "version": "0.8.1+commit.df193b15.Emscripten.clang"
  },
  "schemaVersion": "3.3.3",
  "updatedAt": "2021-02-02T10:25:10.560Z",
  "networkType": "ethereum",
  "devdoc": {
    "kind": "dev",
    "methods": {},
    "version": 1
  },
  "userdoc": {
    "kind": "user",
    "methods": {},
    "version": 1
  }
}