{
  "contractName": "Reputation",
  "abi": [
    {
      "inputs": [
        {
          "internalType": "address",
          "name": "_freeLancer",
          "type": "address"
        }
      ],
      "name": "getWithoutDispute",
      "outputs": [
        {
          "internalType": "uint256",
          "name": "",
          "type": "uint256"
        }
      ],
      "stateMutability": "view",
      "type": "function",
      "constant": true
    },
    {
      "inputs": [
        {
          "internalType": "address",
          "name": "_freeLancer",
          "type": "address"
        }
      ],
      "name": "getLancerWonDispute",
      "outputs": [
        {
          "internalType": "uint256",
          "name": "",
          "type": "uint256"
        }
      ],
      "stateMutability": "view",
      "type": "function",
      "constant": true
    },
    {
      "inputs": [
        {
          "internalType": "address",
          "name": "_freeLancer",
          "type": "address"
        }
      ],
      "name": "getLancerLostDispute",
      "outputs": [
        {
          "internalType": "uint256",
          "name": "",
          "type": "uint256"
        }
      ],
      "stateMutability": "view",
      "type": "function",
      "constant": true
    },
    {
      "inputs": [
        {
          "internalType": "address",
          "name": "_freeLancer",
          "type": "address"
        }
      ],
      "name": "setWithoutDispute",
      "outputs": [],
      "stateMutability": "nonpayable",
      "type": "function"
    },
    {
      "inputs": [
        {
          "internalType": "address",
          "name": "_freeLancer",
          "type": "address"
        }
      ],
      "name": "setLanserWonDispute",
      "outputs": [],
      "stateMutability": "nonpayable",
      "type": "function"
    },
    {
      "inputs": [
        {
          "internalType": "address",
          "name": "_freeLancer",
          "type": "address"
        }
      ],
      "name": "setLanserLostDispute",
      "outputs": [],
      "stateMutability": "nonpayable",
      "type": "function"
    }
  ],
  "bytecode": "0x608060405234801561001057600080fd5b5061059d806100206000396000f3fe608060405234801561001057600080fd5b50600436106100625760003560e01c8063196d6e6c146100675780634cebeacc146100835780634d2c7aeb146100b35780635c7bd757146100cf5780638c6c757d146100ff578063d89f21981461011b575b600080fd5b610081600480360381019061007c91906104c1565b61014b565b005b61009d600480360381019061009891906104c1565b61021f565b6040516100aa91906104f9565b60405180910390f35b6100cd60048036038101906100c891906104c1565b61026a565b005b6100e960048036038101906100e491906104c1565b61033f565b6040516100f691906104f9565b60405180910390f35b610119600480360381019061011491906104c1565b61038b565b005b610135600480360381019061013091906104c1565b610460565b60405161014291906104f9565b60405180910390f35b6000808273ffffffffffffffffffffffffffffffffffffffff1673ffffffffffffffffffffffffffffffffffffffff16815260200190815260200160002060405180602001604052808373ffffffffffffffffffffffffffffffffffffffff168152509080600181540180825580915050600190039060005260206000200160009091909190915060008201518160000160006101000a81548173ffffffffffffffffffffffffffffffffffffffff021916908373ffffffffffffffffffffffffffffffffffffffff160217905550505050565b60008060008373ffffffffffffffffffffffffffffffffffffffff1673ffffffffffffffffffffffffffffffffffffffff168152602001908152602001600020805490509050919050565b600160008273ffffffffffffffffffffffffffffffffffffffff1673ffffffffffffffffffffffffffffffffffffffff16815260200190815260200160002060405180602001604052808373ffffffffffffffffffffffffffffffffffffffff168152509080600181540180825580915050600190039060005260206000200160009091909190915060008201518160000160006101000a81548173ffffffffffffffffffffffffffffffffffffffff021916908373ffffffffffffffffffffffffffffffffffffffff160217905550505050565b6000600160008373ffffffffffffffffffffffffffffffffffffffff1673ffffffffffffffffffffffffffffffffffffffff168152602001908152602001600020805490509050919050565b600260008273ffffffffffffffffffffffffffffffffffffffff1673ffffffffffffffffffffffffffffffffffffffff16815260200190815260200160002060405180602001604052808373ffffffffffffffffffffffffffffffffffffffff168152509080600181540180825580915050600190039060005260206000200160009091909190915060008201518160000160006101000a81548173ffffffffffffffffffffffffffffffffffffffff021916908373ffffffffffffffffffffffffffffffffffffffff160217905550505050565b6000600260008373ffffffffffffffffffffffffffffffffffffffff1673ffffffffffffffffffffffffffffffffffffffff168152602001908152602001600020805490509050919050565b6000813590506104bb81610550565b92915050565b6000602082840312156104d357600080fd5b60006104e1848285016104ac565b91505092915050565b6104f381610546565b82525050565b600060208201905061050e60008301846104ea565b92915050565b600061051f82610526565b9050919050565b600073ffffffffffffffffffffffffffffffffffffffff82169050919050565b6000819050919050565b61055981610514565b811461056457600080fd5b5056fea26469706673582212203b436def090cf70529d033a04f6cb871d9e1fd4365b47343a1daecc8f50421bf64736f6c63430008010033",
  "immutableReferences": {},
  "source": "// SPDX-License-Identifier: no-licence\r\n\r\npragma solidity ^0.8.1;\r\n\r\n// reputation for freeLancer\r\ncontract Reputation {           \r\n    \r\n    // Reputation Variables\r\n    struct WithoutDispute{\r\n        address freeLancer;      // address freeLancer\r\n    }\r\n    // Reputation Variables\r\n    struct EmployeeWonDispute{\r\n        address freeLancer;      // address freeLancer\r\n    }\r\n    // Reputation Variables\r\n    struct LancerWonDispute{\r\n        address freeLancer;      // address freeLancer\r\n    }\r\n    \r\n    mapping(address => WithoutDispute[]) withoutDispute;  // freeLancer => withoutDispute\r\n    mapping(address => EmployeeWonDispute[]) employeeWonDispute;  // freeLancer => employeeWonDispute\r\n    mapping(address => LancerWonDispute[]) lancerWonDispute;  // freeLancer => lancerWonDispute\r\n    \r\n    // Return the number of successful projects w/o dispute for spesific freeLancer\r\n    // It is used to measure freeLancer's reputation\r\n    function getWithoutDispute(address _freeLancer) external view returns (uint) {\r\n        return withoutDispute[_freeLancer].length;\r\n    }\r\n    // Return the number of disputes that freeLancer won...\r\n    function getLancerWonDispute(address _freeLancer) external view returns(uint) {\r\n        return lancerWonDispute[_freeLancer].length;\r\n    }\r\n    // Return the number of disputes that freeLancer lost and employee won...\r\n    // This number would be a negative point for freeLancer \r\n    function getLancerLostDispute(address _freeLancer) external view returns(uint) {\r\n        return employeeWonDispute[_freeLancer].length;\r\n    }\r\n    \r\n    // set reputation for no dispute finalization\r\n    function setWithoutDispute(address _freeLancer) external {\r\n        withoutDispute[_freeLancer].push(WithoutDispute({freeLancer: _freeLancer}));\r\n    }\r\n    \r\n    // set reputation for dispute and lancer win\r\n    function setLanserWonDispute(address _freeLancer) external {\r\n        lancerWonDispute[_freeLancer].push(LancerWonDispute({freeLancer: _freeLancer}));\r\n    }\r\n    \r\n    // set reputation for dispute and lancer lost\r\n    function setLanserLostDispute(address _freeLancer) external {\r\n        employeeWonDispute[_freeLancer].push(EmployeeWonDispute({freeLancer: _freeLancer}));\r\n    }\r\n}",
  "sourcePath": "E:\\Ethereum projects\\Freelancer\\src\\contracts\\reputation\\Reputation.sol",
  "compiler": {
    "name": "solc",
    "version": "0.8.1+commit.df193b15.Emscripten.clang"
  },
  "schemaVersion": "3.3.3",
  "updatedAt": "2021-02-02T10:25:10.546Z",
  "networkType": "ethereum",
  "devdoc": {
    "kind": "dev",
    "methods": {},
    "version": 1
  },
  "userdoc": {
    "kind": "user",
    "methods": {},
    "version": 1
  }
}